{
  "_format": "hh-sol-artifact-1",
  "contractName": "SupplyChain",
  "sourceName": "contracts/SupplyChain.sol",
  "abi": [
    {
      "inputs": [],
      "stateMutability": "nonpayable",
      "type": "constructor"
    },
    {
      "anonymous": false,
      "inputs": [
        {
          "indexed": true,
          "internalType": "uint256",
          "name": "id",
          "type": "uint256"
        },
        {
          "indexed": false,
          "internalType": "string",
          "name": "name",
          "type": "string"
        },
        {
          "indexed": true,
          "internalType": "address",
          "name": "owner",
          "type": "address"
        }
      ],
      "name": "ProductCreated",
      "type": "event"
    },
    {
      "anonymous": false,
      "inputs": [
        {
          "indexed": true,
          "internalType": "address",
          "name": "addr",
          "type": "address"
        },
        {
          "indexed": false,
          "internalType": "enum SupplyChain.Role",
          "name": "role",
          "type": "uint8"
        }
      ],
      "name": "RoleAssigned",
      "type": "event"
    },
    {
      "anonymous": false,
      "inputs": [
        {
          "indexed": true,
          "internalType": "uint256",
          "name": "productId",
          "type": "uint256"
        },
        {
          "indexed": false,
          "internalType": "string",
          "name": "location",
          "type": "string"
        },
        {
          "indexed": false,
          "internalType": "string",
          "name": "status",
          "type": "string"
        },
        {
          "indexed": true,
          "internalType": "address",
          "name": "updatedBy",
          "type": "address"
        }
      ],
      "name": "StepAdded",
      "type": "event"
    },
    {
      "inputs": [
        {
          "internalType": "uint256",
          "name": "_productId",
          "type": "uint256"
        },
        {
          "internalType": "string",
          "name": "_location",
          "type": "string"
        },
        {
          "internalType": "string",
          "name": "_status",
          "type": "string"
        }
      ],
      "name": "addStep",
      "outputs": [],
      "stateMutability": "nonpayable",
      "type": "function"
    },
    {
      "inputs": [],
      "name": "admin",
      "outputs": [
        {
          "internalType": "address",
          "name": "",
          "type": "address"
        }
      ],
      "stateMutability": "view",
      "type": "function"
    },
    {
      "inputs": [
        {
          "internalType": "address",
          "name": "_addr",
          "type": "address"
        },
        {
          "internalType": "enum SupplyChain.Role",
          "name": "_role",
          "type": "uint8"
        }
      ],
      "name": "assignRole",
      "outputs": [],
      "stateMutability": "nonpayable",
      "type": "function"
    },
    {
      "inputs": [
        {
          "internalType": "uint256",
          "name": "_id",
          "type": "uint256"
        },
        {
          "internalType": "string",
          "name": "_name",
          "type": "string"
        }
      ],
      "name": "createProduct",
      "outputs": [],
      "stateMutability": "nonpayable",
      "type": "function"
    },
    {
      "inputs": [
        {
          "internalType": "uint256",
          "name": "_id",
          "type": "uint256"
        }
      ],
      "name": "getProduct",
      "outputs": [
        {
          "components": [
            {
              "internalType": "uint256",
              "name": "id",
              "type": "uint256"
            },
            {
              "internalType": "string",
              "name": "name",
              "type": "string"
            },
            {
              "internalType": "address",
              "name": "currentOwner",
              "type": "address"
            },
            {
              "internalType": "bool",
              "name": "isCreated",
              "type": "bool"
            }
          ],
          "internalType": "struct SupplyChain.Product",
          "name": "",
          "type": "tuple"
        }
      ],
      "stateMutability": "view",
      "type": "function"
    },
    {
      "inputs": [
        {
          "internalType": "uint256",
          "name": "_id",
          "type": "uint256"
        }
      ],
      "name": "getProductHistory",
      "outputs": [
        {
          "components": [
            {
              "internalType": "string",
              "name": "location",
              "type": "string"
            },
            {
              "internalType": "string",
              "name": "status",
              "type": "string"
            },
            {
              "internalType": "uint256",
              "name": "timestamp",
              "type": "uint256"
            },
            {
              "internalType": "address",
              "name": "updatedBy",
              "type": "address"
            }
          ],
          "internalType": "struct SupplyChain.Step[]",
          "name": "",
          "type": "tuple[]"
        }
      ],
      "stateMutability": "view",
      "type": "function"
    },
    {
      "inputs": [
        {
          "internalType": "address",
          "name": "_addr",
          "type": "address"
        }
      ],
      "name": "getRole",
      "outputs": [
        {
          "internalType": "enum SupplyChain.Role",
          "name": "",
          "type": "uint8"
        }
      ],
      "stateMutability": "view",
      "type": "function"
    },
    {
      "inputs": [
        {
          "internalType": "uint256",
          "name": "",
          "type": "uint256"
        },
        {
          "internalType": "uint256",
          "name": "",
          "type": "uint256"
        }
      ],
      "name": "productHistory",
      "outputs": [
        {
          "internalType": "string",
          "name": "location",
          "type": "string"
        },
        {
          "internalType": "string",
          "name": "status",
          "type": "string"
        },
        {
          "internalType": "uint256",
          "name": "timestamp",
          "type": "uint256"
        },
        {
          "internalType": "address",
          "name": "updatedBy",
          "type": "address"
        }
      ],
      "stateMutability": "view",
      "type": "function"
    },
    {
      "inputs": [
        {
          "internalType": "uint256",
          "name": "",
          "type": "uint256"
        }
      ],
      "name": "products",
      "outputs": [
        {
          "internalType": "uint256",
          "name": "id",
          "type": "uint256"
        },
        {
          "internalType": "string",
          "name": "name",
          "type": "string"
        },
        {
          "internalType": "address",
          "name": "currentOwner",
          "type": "address"
        },
        {
          "internalType": "bool",
          "name": "isCreated",
          "type": "bool"
        }
      ],
      "stateMutability": "view",
      "type": "function"
    },
    {
      "inputs": [
        {
          "internalType": "address",
          "name": "",
          "type": "address"
        }
      ],
      "name": "roles",
      "outputs": [
        {
          "internalType": "enum SupplyChain.Role",
          "name": "",
          "type": "uint8"
        }
      ],
      "stateMutability": "view",
      "type": "function"
    }
  ],
  "bytecode": "0x608060405234801561001057600080fd5b5033600360006101000a81548173ffffffffffffffffffffffffffffffffffffffff021916908373ffffffffffffffffffffffffffffffffffffffff160217905550611f9a806100616000396000f3fe608060405234801561001057600080fd5b506004361061009e5760003560e01c8063630a195b11610066578063630a195b1461016e5780637acc0b201461018a57806399374642146101bd578063b9db15b4146101ed578063f851a4401461021d5761009e565b80630a01841d146100a35780633a7d2376146100bf57806344276733146100f257806357a096a1146101225780635bb3c09614610152575b600080fd5b6100bd60048036038101906100b8919061130d565b61023b565b005b6100d960048036038101906100d49190611369565b6105d8565b6040516100e99493929190611478565b60405180910390f35b61010c600480360381019061010791906114f7565b610755565b604051610119919061159b565b60405180910390f35b61013c600480360381019061013791906115b6565b6107ab565b6040516101499190611777565b60405180910390f35b61016c60048036038101906101679190611799565b610a03565b005b61018860048036038101906101839190611849565b610d2e565b005b6101a4600480360381019061019f91906115b6565b610e77565b6040516101b494939291906118a4565b60405180910390f35b6101d760048036038101906101d291906114f7565b610f5c565b6040516101e4919061159b565b60405180910390f35b610207600480360381019061020291906115b6565b610f7c565b6040516102149190611962565b60405180910390f35b610225611117565b6040516102329190611984565b60405180910390f35b60018060038111156102505761024f611524565b5b600260003373ffffffffffffffffffffffffffffffffffffffff1673ffffffffffffffffffffffffffffffffffffffff16815260200190815260200160002060009054906101000a900460ff1660038111156102af576102ae611524565b5b146102ef576040517f08c379a00000000000000000000000000000000000000000000000000000000081526004016102e690611a11565b60405180910390fd5b60008084815260200190815260200160002060020160149054906101000a900460ff1615610352576040517f08c379a000000000000000000000000000000000000000000000000000000000815260040161034990611a7d565b60405180910390fd5b60405180608001604052808481526020018381526020013373ffffffffffffffffffffffffffffffffffffffff168152602001600115158152506000808581526020019081526020016000206000820151816000015560208201518160010190816103bd9190611ca9565b5060408201518160020160006101000a81548173ffffffffffffffffffffffffffffffffffffffff021916908373ffffffffffffffffffffffffffffffffffffffff16021790555060608201518160020160146101000a81548160ff0219169083151502179055509050506001600084815260200190815260200160002060405180608001604052806040518060400160405280600781526020017f466163746f72790000000000000000000000000000000000000000000000000081525081526020016040518060400160405280600781526020017f437265617465640000000000000000000000000000000000000000000000000081525081526020014281526020013373ffffffffffffffffffffffffffffffffffffffff168152509080600181540180825580915050600190039060005260206000209060040201600090919091909150600082015181600001908161051a9190611ca9565b5060208201518160010190816105309190611ca9565b506040820151816002015560608201518160030160006101000a81548173ffffffffffffffffffffffffffffffffffffffff021916908373ffffffffffffffffffffffffffffffffffffffff16021790555050503373ffffffffffffffffffffffffffffffffffffffff16837faf6ffb6277511513e7d579327cc1fc57f0266df2fb11a60b13487b8c9cd2c388846040516105cb9190611d7b565b60405180910390a3505050565b600160205281600052604060002081815481106105f457600080fd5b90600052602060002090600402016000915091505080600001805461061890611acc565b80601f016020809104026020016040519081016040528092919081815260200182805461064490611acc565b80156106915780601f1061066657610100808354040283529160200191610691565b820191906000526020600020905b81548152906001019060200180831161067457829003601f168201915b5050505050908060010180546106a690611acc565b80601f01602080910402602001604051908101604052809291908181526020018280546106d290611acc565b801561071f5780601f106106f45761010080835404028352916020019161071f565b820191906000526020600020905b81548152906001019060200180831161070257829003601f168201915b5050505050908060020154908060030160009054906101000a900473ffffffffffffffffffffffffffffffffffffffff16905084565b6000600260008373ffffffffffffffffffffffffffffffffffffffff1673ffffffffffffffffffffffffffffffffffffffff16815260200190815260200160002060009054906101000a900460ff169050919050565b606060008083815260200190815260200160002060020160149054906101000a900460ff1661080f576040517f08c379a000000000000000000000000000000000000000000000000000000000815260040161080690611de9565b60405180910390fd5b60016000838152602001908152602001600020805480602002602001604051908101604052809291908181526020016000905b828210156109f8578382906000526020600020906004020160405180608001604052908160008201805461087590611acc565b80601f01602080910402602001604051908101604052809291908181526020018280546108a190611acc565b80156108ee5780601f106108c3576101008083540402835291602001916108ee565b820191906000526020600020905b8154815290600101906020018083116108d157829003601f168201915b5050505050815260200160018201805461090790611acc565b80601f016020809104026020016040519081016040528092919081815260200182805461093390611acc565b80156109805780601f1061095557610100808354040283529160200191610980565b820191906000526020600020905b81548152906001019060200180831161096357829003601f168201915b50505050508152602001600282015481526020016003820160009054906101000a900473ffffffffffffffffffffffffffffffffffffffff1673ffffffffffffffffffffffffffffffffffffffff1673ffffffffffffffffffffffffffffffffffffffff168152505081526020019060010190610842565b505050509050919050565b60008084815260200190815260200160002060020160149054906101000a900460ff16610a65576040517f08c379a0000000000000000000000000000000000000000000000000000000008152600401610a5c90611de9565b60405180910390fd5b60026003811115610a7957610a78611524565b5b600260003373ffffffffffffffffffffffffffffffffffffffff1673ffffffffffffffffffffffffffffffffffffffff16815260200190815260200160002060009054906101000a900460ff166003811115610ad857610ad7611524565b5b1480610b535750600380811115610af257610af1611524565b5b600260003373ffffffffffffffffffffffffffffffffffffffff1673ffffffffffffffffffffffffffffffffffffffff16815260200190815260200160002060009054906101000a900460ff166003811115610b5157610b50611524565b5b145b610b92576040517f08c379a0000000000000000000000000000000000000000000000000000000008152600401610b8990611e7b565b60405180910390fd5b6001600084815260200190815260200160002060405180608001604052808481526020018381526020014281526020013373ffffffffffffffffffffffffffffffffffffffff1681525090806001815401808255809150506001900390600052602060002090600402016000909190919091506000820151816000019081610c1a9190611ca9565b506020820151816001019081610c309190611ca9565b506040820151816002015560608201518160030160006101000a81548173ffffffffffffffffffffffffffffffffffffffff021916908373ffffffffffffffffffffffffffffffffffffffff16021790555050503360008085815260200190815260200160002060020160006101000a81548173ffffffffffffffffffffffffffffffffffffffff021916908373ffffffffffffffffffffffffffffffffffffffff1602179055503373ffffffffffffffffffffffffffffffffffffffff16837f20078cd40a821ea95d6437fc88fb514e0418a9f25d03bdef10f6efeae0a0e7f48484604051610d21929190611e9b565b60405180910390a3505050565b600360009054906101000a900473ffffffffffffffffffffffffffffffffffffffff1673ffffffffffffffffffffffffffffffffffffffff163373ffffffffffffffffffffffffffffffffffffffff1614610dbe576040517f08c379a0000000000000000000000000000000000000000000000000000000008152600401610db590611f44565b60405180910390fd5b80600260008473ffffffffffffffffffffffffffffffffffffffff1673ffffffffffffffffffffffffffffffffffffffff16815260200190815260200160002060006101000a81548160ff02191690836003811115610e2057610e1f611524565b5b02179055508173ffffffffffffffffffffffffffffffffffffffff167f4ac36fa53f167ceb85964be512e01de2a3b8bdb9862f917da079deeeff689b3882604051610e6b919061159b565b60405180910390a25050565b6000602052806000526040600020600091509050806000015490806001018054610ea090611acc565b80601f0160208091040260200160405190810160405280929190818152602001828054610ecc90611acc565b8015610f195780601f10610eee57610100808354040283529160200191610f19565b820191906000526020600020905b815481529060010190602001808311610efc57829003601f168201915b5050505050908060020160009054906101000a900473ffffffffffffffffffffffffffffffffffffffff16908060020160149054906101000a900460ff16905084565b60026020528060005260406000206000915054906101000a900460ff1681565b610f8461113d565b60008083815260200190815260200160002060020160149054906101000a900460ff16610fe6576040517f08c379a0000000000000000000000000000000000000000000000000000000008152600401610fdd90611de9565b60405180910390fd5b6000808381526020019081526020016000206040518060800160405290816000820154815260200160018201805461101d90611acc565b80601f016020809104026020016040519081016040528092919081815260200182805461104990611acc565b80156110965780601f1061106b57610100808354040283529160200191611096565b820191906000526020600020905b81548152906001019060200180831161107957829003601f168201915b505050505081526020016002820160009054906101000a900473ffffffffffffffffffffffffffffffffffffffff1673ffffffffffffffffffffffffffffffffffffffff1673ffffffffffffffffffffffffffffffffffffffff1681526020016002820160149054906101000a900460ff1615151515815250509050919050565b600360009054906101000a900473ffffffffffffffffffffffffffffffffffffffff1681565b60405180608001604052806000815260200160608152602001600073ffffffffffffffffffffffffffffffffffffffff1681526020016000151581525090565b6000604051905090565b600080fd5b600080fd5b6000819050919050565b6111a481611191565b81146111af57600080fd5b50565b6000813590506111c18161119b565b92915050565b600080fd5b600080fd5b6000601f19601f8301169050919050565b7f4e487b7100000000000000000000000000000000000000000000000000000000600052604160045260246000fd5b61121a826111d1565b810181811067ffffffffffffffff82111715611239576112386111e2565b5b80604052505050565b600061124c61117d565b90506112588282611211565b919050565b600067ffffffffffffffff821115611278576112776111e2565b5b611281826111d1565b9050602081019050919050565b82818337600083830152505050565b60006112b06112ab8461125d565b611242565b9050828152602081018484840111156112cc576112cb6111cc565b5b6112d784828561128e565b509392505050565b600082601f8301126112f4576112f36111c7565b5b813561130484826020860161129d565b91505092915050565b6000806040838503121561132457611323611187565b5b6000611332858286016111b2565b925050602083013567ffffffffffffffff8111156113535761135261118c565b5b61135f858286016112df565b9150509250929050565b600080604083850312156113805761137f611187565b5b600061138e858286016111b2565b925050602061139f858286016111b2565b9150509250929050565b600081519050919050565b600082825260208201905092915050565b60005b838110156113e35780820151818401526020810190506113c8565b60008484015250505050565b60006113fa826113a9565b61140481856113b4565b93506114148185602086016113c5565b61141d816111d1565b840191505092915050565b61143181611191565b82525050565b600073ffffffffffffffffffffffffffffffffffffffff82169050919050565b600061146282611437565b9050919050565b61147281611457565b82525050565b6000608082019050818103600083015261149281876113ef565b905081810360208301526114a681866113ef565b90506114b56040830185611428565b6114c26060830184611469565b95945050505050565b6114d481611457565b81146114df57600080fd5b50565b6000813590506114f1816114cb565b92915050565b60006020828403121561150d5761150c611187565b5b600061151b848285016114e2565b91505092915050565b7f4e487b7100000000000000000000000000000000000000000000000000000000600052602160045260246000fd5b6004811061156457611563611524565b5b50565b600081905061157582611553565b919050565b600061158582611567565b9050919050565b6115958161157a565b82525050565b60006020820190506115b0600083018461158c565b92915050565b6000602082840312156115cc576115cb611187565b5b60006115da848285016111b2565b91505092915050565b600081519050919050565b600082825260208201905092915050565b6000819050602082019050919050565b600082825260208201905092915050565b600061162b826113a9565b611635818561160f565b93506116458185602086016113c5565b61164e816111d1565b840191505092915050565b61166281611191565b82525050565b61167181611457565b82525050565b600060808301600083015184820360008601526116948282611620565b915050602083015184820360208601526116ae8282611620565b91505060408301516116c36040860182611659565b5060608301516116d66060860182611668565b508091505092915050565b60006116ed8383611677565b905092915050565b6000602082019050919050565b600061170d826115e3565b61171781856115ee565b935083602082028501611729856115ff565b8060005b85811015611765578484038952815161174685826116e1565b9450611751836116f5565b925060208a0199505060018101905061172d565b50829750879550505050505092915050565b600060208201905081810360008301526117918184611702565b905092915050565b6000806000606084860312156117b2576117b1611187565b5b60006117c0868287016111b2565b935050602084013567ffffffffffffffff8111156117e1576117e061118c565b5b6117ed868287016112df565b925050604084013567ffffffffffffffff81111561180e5761180d61118c565b5b61181a868287016112df565b9150509250925092565b6004811061183157600080fd5b50565b60008135905061184381611824565b92915050565b600080604083850312156118605761185f611187565b5b600061186e858286016114e2565b925050602061187f85828601611834565b9150509250929050565b60008115159050919050565b61189e81611889565b82525050565b60006080820190506118b96000830187611428565b81810360208301526118cb81866113ef565b90506118da6040830185611469565b6118e76060830184611895565b95945050505050565b6118f981611889565b82525050565b60006080830160008301516119176000860182611659565b506020830151848203602086015261192f8282611620565b91505060408301516119446040860182611668565b50606083015161195760608601826118f0565b508091505092915050565b6000602082019050818103600083015261197c81846118ff565b905092915050565b60006020820190506119996000830184611469565b92915050565b7f43616c6c657220646f6573206e6f74206861766520726571756972656420726f60008201527f6c65000000000000000000000000000000000000000000000000000000000000602082015250565b60006119fb6022836113b4565b9150611a068261199f565b604082019050919050565b60006020820190508181036000830152611a2a816119ee565b9050919050565b7f50726f6475637420616c72656164792065786973747300000000000000000000600082015250565b6000611a676016836113b4565b9150611a7282611a31565b602082019050919050565b60006020820190508181036000830152611a9681611a5a565b9050919050565b7f4e487b7100000000000000000000000000000000000000000000000000000000600052602260045260246000fd5b60006002820490506001821680611ae457607f821691505b602082108103611af757611af6611a9d565b5b50919050565b60008190508160005260206000209050919050565b60006020601f8301049050919050565b600082821b905092915050565b600060088302611b5f7fffffffffffffffffffffffffffffffffffffffffffffffffffffffffffffffff82611b22565b611b698683611b22565b95508019841693508086168417925050509392505050565b6000819050919050565b6000611ba6611ba1611b9c84611191565b611b81565b611191565b9050919050565b6000819050919050565b611bc083611b8b565b611bd4611bcc82611bad565b848454611b2f565b825550505050565b600090565b611be9611bdc565b611bf4818484611bb7565b505050565b5b81811015611c1857611c0d600082611be1565b600181019050611bfa565b5050565b601f821115611c5d57611c2e81611afd565b611c3784611b12565b81016020851015611c46578190505b611c5a611c5285611b12565b830182611bf9565b50505b505050565b600082821c905092915050565b6000611c8060001984600802611c62565b1980831691505092915050565b6000611c998383611c6f565b9150826002028217905092915050565b611cb2826113a9565b67ffffffffffffffff811115611ccb57611cca6111e2565b5b611cd58254611acc565b611ce0828285611c1c565b600060209050601f831160018114611d135760008415611d01578287015190505b611d0b8582611c8d565b865550611d73565b601f198416611d2186611afd565b60005b82811015611d4957848901518255600182019150602085019450602081019050611d24565b86831015611d665784890151611d62601f891682611c6f565b8355505b6001600288020188555050505b505050505050565b60006020820190508181036000830152611d9581846113ef565b905092915050565b7f50726f6475637420646f6573206e6f7420657869737400000000000000000000600082015250565b6000611dd36016836113b4565b9150611dde82611d9d565b602082019050919050565b60006020820190508181036000830152611e0281611dc6565b9050919050565b7f43616c6c6572206d757374206265204469737472696275746f72206f7220526560008201527f7461696c65720000000000000000000000000000000000000000000000000000602082015250565b6000611e656026836113b4565b9150611e7082611e09565b604082019050919050565b60006020820190508181036000830152611e9481611e58565b9050919050565b60006040820190508181036000830152611eb581856113ef565b90508181036020830152611ec981846113ef565b90509392505050565b7f4f6e6c792061646d696e2063616e20706572666f726d2074686973206163746960008201527f6f6e000000000000000000000000000000000000000000000000000000000000602082015250565b6000611f2e6022836113b4565b9150611f3982611ed2565b604082019050919050565b60006020820190508181036000830152611f5d81611f21565b905091905056fea26469706673582212201c147197d1cec8f6d6b39b3233588f7208693c136077f386b1073ab0d105cec464736f6c63430008140033",
  "linkReferences": {},
  "deployedLinkReferences": {}
}