{
  "_format": "hh-sol-artifact-1",
  "contractName": "SupplyChain",
  "sourceName": "contracts/SupplyChain.sol",
  "abi": [
    {
      "anonymous": false,
      "inputs": [
        {
          "indexed": true,
          "internalType": "uint256",
          "name": "id",
          "type": "uint256"
        },
        {
          "indexed": false,
          "internalType": "string",
          "name": "name",
          "type": "string"
        },
        {
          "indexed": true,
          "internalType": "address",
          "name": "owner",
          "type": "address"
        }
      ],
      "name": "ProductCreated",
      "type": "event"
    },
    {
      "anonymous": false,
      "inputs": [
        {
          "indexed": true,
          "internalType": "uint256",
          "name": "productId",
          "type": "uint256"
        },
        {
          "indexed": false,
          "internalType": "string",
          "name": "location",
          "type": "string"
        },
        {
          "indexed": false,
          "internalType": "string",
          "name": "status",
          "type": "string"
        },
        {
          "indexed": true,
          "internalType": "address",
          "name": "updatedBy",
          "type": "address"
        }
      ],
      "name": "StepAdded",
      "type": "event"
    },
    {
      "inputs": [
        {
          "internalType": "uint256",
          "name": "_productId",
          "type": "uint256"
        },
        {
          "internalType": "string",
          "name": "_location",
          "type": "string"
        },
        {
          "internalType": "string",
          "name": "_status",
          "type": "string"
        }
      ],
      "name": "addStep",
      "outputs": [],
      "stateMutability": "nonpayable",
      "type": "function"
    },
    {
      "inputs": [
        {
          "internalType": "uint256",
          "name": "_id",
          "type": "uint256"
        },
        {
          "internalType": "string",
          "name": "_name",
          "type": "string"
        }
      ],
      "name": "createProduct",
      "outputs": [],
      "stateMutability": "nonpayable",
      "type": "function"
    },
    {
      "inputs": [
        {
          "internalType": "uint256",
          "name": "_id",
          "type": "uint256"
        }
      ],
      "name": "getProduct",
      "outputs": [
        {
          "components": [
            {
              "internalType": "uint256",
              "name": "id",
              "type": "uint256"
            },
            {
              "internalType": "string",
              "name": "name",
              "type": "string"
            },
            {
              "internalType": "address",
              "name": "currentOwner",
              "type": "address"
            },
            {
              "internalType": "bool",
              "name": "isCreated",
              "type": "bool"
            }
          ],
          "internalType": "struct SupplyChain.Product",
          "name": "",
          "type": "tuple"
        }
      ],
      "stateMutability": "view",
      "type": "function"
    },
    {
      "inputs": [
        {
          "internalType": "uint256",
          "name": "_id",
          "type": "uint256"
        }
      ],
      "name": "getProductHistory",
      "outputs": [
        {
          "components": [
            {
              "internalType": "string",
              "name": "location",
              "type": "string"
            },
            {
              "internalType": "string",
              "name": "status",
              "type": "string"
            },
            {
              "internalType": "uint256",
              "name": "timestamp",
              "type": "uint256"
            },
            {
              "internalType": "address",
              "name": "updatedBy",
              "type": "address"
            }
          ],
          "internalType": "struct SupplyChain.Step[]",
          "name": "",
          "type": "tuple[]"
        }
      ],
      "stateMutability": "view",
      "type": "function"
    },
    {
      "inputs": [
        {
          "internalType": "uint256",
          "name": "",
          "type": "uint256"
        },
        {
          "internalType": "uint256",
          "name": "",
          "type": "uint256"
        }
      ],
      "name": "productHistory",
      "outputs": [
        {
          "internalType": "string",
          "name": "location",
          "type": "string"
        },
        {
          "internalType": "string",
          "name": "status",
          "type": "string"
        },
        {
          "internalType": "uint256",
          "name": "timestamp",
          "type": "uint256"
        },
        {
          "internalType": "address",
          "name": "updatedBy",
          "type": "address"
        }
      ],
      "stateMutability": "view",
      "type": "function"
    },
    {
      "inputs": [
        {
          "internalType": "uint256",
          "name": "",
          "type": "uint256"
        }
      ],
      "name": "products",
      "outputs": [
        {
          "internalType": "uint256",
          "name": "id",
          "type": "uint256"
        },
        {
          "internalType": "string",
          "name": "name",
          "type": "string"
        },
        {
          "internalType": "address",
          "name": "currentOwner",
          "type": "address"
        },
        {
          "internalType": "bool",
          "name": "isCreated",
          "type": "bool"
        }
      ],
      "stateMutability": "view",
      "type": "function"
    }
  ],
  "bytecode": "0x608060405234801561001057600080fd5b506117dc806100206000396000f3fe608060405234801561001057600080fd5b50600436106100625760003560e01c80630a01841d146100675780633a7d23761461008357806357a096a1146100b65780635bb3c096146100e65780637acc0b2014610102578063b9db15b414610135575b600080fd5b610081600480360381019061007c9190610e70565b610165565b005b61009d60048036038101906100989190610ecc565b61044d565b6040516100ad9493929190610fdb565b60405180910390f35b6100d060048036038101906100cb919061102e565b6105ca565b6040516100dd91906111ef565b60405180910390f35b61010060048036038101906100fb9190611211565b610822565b005b61011c6004803603810190610117919061102e565b610a20565b60405161012c94939291906112b7565b60405180910390f35b61014f600480360381019061014a919061102e565b610b05565b60405161015c9190611375565b60405180910390f35b60008083815260200190815260200160002060020160149054906101000a900460ff16156101c8576040517f08c379a00000000000000000000000000000000000000000000000000000000081526004016101bf906113e3565b60405180910390fd5b60405180608001604052808381526020018281526020013373ffffffffffffffffffffffffffffffffffffffff16815260200160011515815250600080848152602001908152602001600020600082015181600001556020820151816001019081610233919061160f565b5060408201518160020160006101000a81548173ffffffffffffffffffffffffffffffffffffffff021916908373ffffffffffffffffffffffffffffffffffffffff16021790555060608201518160020160146101000a81548160ff0219169083151502179055509050506001600083815260200190815260200160002060405180608001604052806040518060400160405280600781526020017f466163746f72790000000000000000000000000000000000000000000000000081525081526020016040518060400160405280600781526020017f437265617465640000000000000000000000000000000000000000000000000081525081526020014281526020013373ffffffffffffffffffffffffffffffffffffffff1681525090806001815401808255809150506001900390600052602060002090600402016000909190919091506000820151816000019081610390919061160f565b5060208201518160010190816103a6919061160f565b506040820151816002015560608201518160030160006101000a81548173ffffffffffffffffffffffffffffffffffffffff021916908373ffffffffffffffffffffffffffffffffffffffff16021790555050503373ffffffffffffffffffffffffffffffffffffffff16827faf6ffb6277511513e7d579327cc1fc57f0266df2fb11a60b13487b8c9cd2c3888360405161044191906116e1565b60405180910390a35050565b6001602052816000526040600020818154811061046957600080fd5b90600052602060002090600402016000915091505080600001805461048d90611432565b80601f01602080910402602001604051908101604052809291908181526020018280546104b990611432565b80156105065780601f106104db57610100808354040283529160200191610506565b820191906000526020600020905b8154815290600101906020018083116104e957829003601f168201915b50505050509080600101805461051b90611432565b80601f016020809104026020016040519081016040528092919081815260200182805461054790611432565b80156105945780601f1061056957610100808354040283529160200191610594565b820191906000526020600020905b81548152906001019060200180831161057757829003601f168201915b5050505050908060020154908060030160009054906101000a900473ffffffffffffffffffffffffffffffffffffffff16905084565b606060008083815260200190815260200160002060020160149054906101000a900460ff1661062e576040517f08c379a00000000000000000000000000000000000000000000000000000000081526004016106259061174f565b60405180910390fd5b60016000838152602001908152602001600020805480602002602001604051908101604052809291908181526020016000905b82821015610817578382906000526020600020906004020160405180608001604052908160008201805461069490611432565b80601f01602080910402602001604051908101604052809291908181526020018280546106c090611432565b801561070d5780601f106106e25761010080835404028352916020019161070d565b820191906000526020600020905b8154815290600101906020018083116106f057829003601f168201915b5050505050815260200160018201805461072690611432565b80601f016020809104026020016040519081016040528092919081815260200182805461075290611432565b801561079f5780601f106107745761010080835404028352916020019161079f565b820191906000526020600020905b81548152906001019060200180831161078257829003601f168201915b50505050508152602001600282015481526020016003820160009054906101000a900473ffffffffffffffffffffffffffffffffffffffff1673ffffffffffffffffffffffffffffffffffffffff1673ffffffffffffffffffffffffffffffffffffffff168152505081526020019060010190610661565b505050509050919050565b60008084815260200190815260200160002060020160149054906101000a900460ff16610884576040517f08c379a000000000000000000000000000000000000000000000000000000000815260040161087b9061174f565b60405180910390fd5b6001600084815260200190815260200160002060405180608001604052808481526020018381526020014281526020013373ffffffffffffffffffffffffffffffffffffffff168152509080600181540180825580915050600190039060005260206000209060040201600090919091909150600082015181600001908161090c919061160f565b506020820151816001019081610922919061160f565b506040820151816002015560608201518160030160006101000a81548173ffffffffffffffffffffffffffffffffffffffff021916908373ffffffffffffffffffffffffffffffffffffffff16021790555050503360008085815260200190815260200160002060020160006101000a81548173ffffffffffffffffffffffffffffffffffffffff021916908373ffffffffffffffffffffffffffffffffffffffff1602179055503373ffffffffffffffffffffffffffffffffffffffff16837f20078cd40a821ea95d6437fc88fb514e0418a9f25d03bdef10f6efeae0a0e7f48484604051610a1392919061176f565b60405180910390a3505050565b6000602052806000526040600020600091509050806000015490806001018054610a4990611432565b80601f0160208091040260200160405190810160405280929190818152602001828054610a7590611432565b8015610ac25780601f10610a9757610100808354040283529160200191610ac2565b820191906000526020600020905b815481529060010190602001808311610aa557829003601f168201915b5050505050908060020160009054906101000a900473ffffffffffffffffffffffffffffffffffffffff16908060020160149054906101000a900460ff16905084565b610b0d610ca0565b60008083815260200190815260200160002060020160149054906101000a900460ff16610b6f576040517f08c379a0000000000000000000000000000000000000000000000000000000008152600401610b669061174f565b60405180910390fd5b60008083815260200190815260200160002060405180608001604052908160008201548152602001600182018054610ba690611432565b80601f0160208091040260200160405190810160405280929190818152602001828054610bd290611432565b8015610c1f5780601f10610bf457610100808354040283529160200191610c1f565b820191906000526020600020905b815481529060010190602001808311610c0257829003601f168201915b505050505081526020016002820160009054906101000a900473ffffffffffffffffffffffffffffffffffffffff1673ffffffffffffffffffffffffffffffffffffffff1673ffffffffffffffffffffffffffffffffffffffff1681526020016002820160149054906101000a900460ff1615151515815250509050919050565b60405180608001604052806000815260200160608152602001600073ffffffffffffffffffffffffffffffffffffffff1681526020016000151581525090565b6000604051905090565b600080fd5b600080fd5b6000819050919050565b610d0781610cf4565b8114610d1257600080fd5b50565b600081359050610d2481610cfe565b92915050565b600080fd5b600080fd5b6000601f19601f8301169050919050565b7f4e487b7100000000000000000000000000000000000000000000000000000000600052604160045260246000fd5b610d7d82610d34565b810181811067ffffffffffffffff82111715610d9c57610d9b610d45565b5b80604052505050565b6000610daf610ce0565b9050610dbb8282610d74565b919050565b600067ffffffffffffffff821115610ddb57610dda610d45565b5b610de482610d34565b9050602081019050919050565b82818337600083830152505050565b6000610e13610e0e84610dc0565b610da5565b905082815260208101848484011115610e2f57610e2e610d2f565b5b610e3a848285610df1565b509392505050565b600082601f830112610e5757610e56610d2a565b5b8135610e67848260208601610e00565b91505092915050565b60008060408385031215610e8757610e86610cea565b5b6000610e9585828601610d15565b925050602083013567ffffffffffffffff811115610eb657610eb5610cef565b5b610ec285828601610e42565b9150509250929050565b60008060408385031215610ee357610ee2610cea565b5b6000610ef185828601610d15565b9250506020610f0285828601610d15565b9150509250929050565b600081519050919050565b600082825260208201905092915050565b60005b83811015610f46578082015181840152602081019050610f2b565b60008484015250505050565b6000610f5d82610f0c565b610f678185610f17565b9350610f77818560208601610f28565b610f8081610d34565b840191505092915050565b610f9481610cf4565b82525050565b600073ffffffffffffffffffffffffffffffffffffffff82169050919050565b6000610fc582610f9a565b9050919050565b610fd581610fba565b82525050565b60006080820190508181036000830152610ff58187610f52565b905081810360208301526110098186610f52565b90506110186040830185610f8b565b6110256060830184610fcc565b95945050505050565b60006020828403121561104457611043610cea565b5b600061105284828501610d15565b91505092915050565b600081519050919050565b600082825260208201905092915050565b6000819050602082019050919050565b600082825260208201905092915050565b60006110a382610f0c565b6110ad8185611087565b93506110bd818560208601610f28565b6110c681610d34565b840191505092915050565b6110da81610cf4565b82525050565b6110e981610fba565b82525050565b6000608083016000830151848203600086015261110c8282611098565b915050602083015184820360208601526111268282611098565b915050604083015161113b60408601826110d1565b50606083015161114e60608601826110e0565b508091505092915050565b600061116583836110ef565b905092915050565b6000602082019050919050565b60006111858261105b565b61118f8185611066565b9350836020820285016111a185611077565b8060005b858110156111dd57848403895281516111be8582611159565b94506111c98361116d565b925060208a019950506001810190506111a5565b50829750879550505050505092915050565b60006020820190508181036000830152611209818461117a565b905092915050565b60008060006060848603121561122a57611229610cea565b5b600061123886828701610d15565b935050602084013567ffffffffffffffff81111561125957611258610cef565b5b61126586828701610e42565b925050604084013567ffffffffffffffff81111561128657611285610cef565b5b61129286828701610e42565b9150509250925092565b60008115159050919050565b6112b18161129c565b82525050565b60006080820190506112cc6000830187610f8b565b81810360208301526112de8186610f52565b90506112ed6040830185610fcc565b6112fa60608301846112a8565b95945050505050565b61130c8161129c565b82525050565b600060808301600083015161132a60008601826110d1565b50602083015184820360208601526113428282611098565b915050604083015161135760408601826110e0565b50606083015161136a6060860182611303565b508091505092915050565b6000602082019050818103600083015261138f8184611312565b905092915050565b7f50726f6475637420616c72656164792065786973747300000000000000000000600082015250565b60006113cd601683610f17565b91506113d882611397565b602082019050919050565b600060208201905081810360008301526113fc816113c0565b9050919050565b7f4e487b7100000000000000000000000000000000000000000000000000000000600052602260045260246000fd5b6000600282049050600182168061144a57607f821691505b60208210810361145d5761145c611403565b5b50919050565b60008190508160005260206000209050919050565b60006020601f8301049050919050565b600082821b905092915050565b6000600883026114c57fffffffffffffffffffffffffffffffffffffffffffffffffffffffffffffffff82611488565b6114cf8683611488565b95508019841693508086168417925050509392505050565b6000819050919050565b600061150c61150761150284610cf4565b6114e7565b610cf4565b9050919050565b6000819050919050565b611526836114f1565b61153a61153282611513565b848454611495565b825550505050565b600090565b61154f611542565b61155a81848461151d565b505050565b5b8181101561157e57611573600082611547565b600181019050611560565b5050565b601f8211156115c35761159481611463565b61159d84611478565b810160208510156115ac578190505b6115c06115b885611478565b83018261155f565b50505b505050565b600082821c905092915050565b60006115e6600019846008026115c8565b1980831691505092915050565b60006115ff83836115d5565b9150826002028217905092915050565b61161882610f0c565b67ffffffffffffffff81111561163157611630610d45565b5b61163b8254611432565b611646828285611582565b600060209050601f8311600181146116795760008415611667578287015190505b61167185826115f3565b8655506116d9565b601f19841661168786611463565b60005b828110156116af5784890151825560018201915060208501945060208101905061168a565b868310156116cc57848901516116c8601f8916826115d5565b8355505b6001600288020188555050505b505050505050565b600060208201905081810360008301526116fb8184610f52565b905092915050565b7f50726f6475637420646f6573206e6f7420657869737400000000000000000000600082015250565b6000611739601683610f17565b915061174482611703565b602082019050919050565b600060208201905081810360008301526117688161172c565b9050919050565b600060408201905081810360008301526117898185610f52565b9050818103602083015261179d8184610f52565b9050939250505056fea2646970667358221220339b6b96a43275345dc2f9ce04c721ffd8bf6807d8da02a08ecfe247fe0d41a064736f6c63430008140033",
  "linkReferences": {},
  "deployedLinkReferences": {}
}